{
  "_format": "hh3-artifact-1",
  "contractName": "VotingFactory",
  "sourceName": "contracts/VotingFactory.sol",
  "abi": [
    {
      "anonymous": false,
      "inputs": [
        {
          "indexed": true,
          "internalType": "address",
          "name": "contractAddress",
          "type": "address"
        },
        {
          "indexed": true,
          "internalType": "address",
          "name": "deployer",
          "type": "address"
        },
        {
          "indexed": false,
          "internalType": "string",
          "name": "metadataURI",
          "type": "string"
        }
      ],
      "name": "VotingCreated",
      "type": "event"
    },
    {
      "inputs": [
        {
          "internalType": "string",
          "name": "_metadataURI",
          "type": "string"
        }
      ],
      "name": "createVoting",
      "outputs": [],
      "stateMutability": "nonpayable",
      "type": "function"
    },
    {
      "inputs": [
        {
          "internalType": "uint256",
          "name": "",
          "type": "uint256"
        }
      ],
      "name": "deployedVotings",
      "outputs": [
        {
          "internalType": "address",
          "name": "",
          "type": "address"
        }
      ],
      "stateMutability": "view",
      "type": "function"
    },
    {
      "inputs": [],
      "name": "getDeployedVotings",
      "outputs": [
        {
          "internalType": "address[]",
          "name": "",
          "type": "address[]"
        }
      ],
      "stateMutability": "view",
      "type": "function"
    }
  ],
  "bytecode": "0x6080604052348015600e575f5ffd5b50611a358061001c5f395ff3fe608060405234801561000f575f5ffd5b506004361061003f575f3560e01c8063298f37ab146100435780633e04b57814610073578063677c3f9c14610088575b5f5ffd5b610056610051366004610243565b61009d565b6040516001600160a01b0390911681526020015b60405180910390f35b61007b6100c4565b60405161006a919061025a565b61009b6100963660046102b9565b610123565b005b5f81815481106100ab575f80fd5b5f918252602090912001546001600160a01b0316905081565b60605f80548060200260200160405190810160405280929190818152602001828054801561011957602002820191905f5260205f20905b81546001600160a01b031681526001909101906020018083116100fb575b5050505050905090565b5f8160405161013190610236565b61013b919061036c565b604051809103905ff080158015610154573d5f5f3e3d5ffd5b5060405163f2fde38b60e01b81523360048201529091506001600160a01b0382169063f2fde38b906024015f604051808303815f87803b158015610196575f5ffd5b505af11580156101a8573d5f5f3e3d5ffd5b50505f80546001810182559080527f290decd9548b62a8d60345a988386fc84ba6bc95484008f6362f93160ef3e5630180546001600160a01b0319166001600160a01b0385169081179091556040513393509091507f844945f17f80515313dea1207660743aa8aadf3fe293352737dda9668086ee7a9061022a90869061036c565b60405180910390a35050565b61165e806103a283390190565b5f60208284031215610253575f5ffd5b5035919050565b602080825282518282018190525f918401906040840190835b8181101561029a5783516001600160a01b0316835260209384019390920191600101610273565b509095945050505050565b634e487b7160e01b5f52604160045260245ffd5b5f602082840312156102c9575f5ffd5b813567ffffffffffffffff8111156102df575f5ffd5b8201601f810184136102ef575f5ffd5b803567ffffffffffffffff811115610309576103096102a5565b604051601f8201601f19908116603f0116810167ffffffffffffffff81118282101715610338576103386102a5565b60405281815282820160200186101561034f575f5ffd5b816020840160208301375f91810160200191909152949350505050565b602081525f82518060208401528060208501604085015e5f604082850101526040601f19601f8301168401019150509291505056fe608060405234801561000f575f5ffd5b5060405161165e38038061165e83398101604081905261002e916100e1565b338061005357604051631e4fbdf760e01b81525f600482015260240160405180910390fd5b61005c8161007e565b5060016100698282610215565b50506003805460ff191690555f6002556102cf565b5f80546001600160a01b038381166001600160a01b0319831681178455604051919092169283917f8be0079c531659141344cd1fd0a4f28419497f9722a3daafe3b4186f6b6457e09190a35050565b634e487b7160e01b5f52604160045260245ffd5b5f602082840312156100f1575f5ffd5b81516001600160401b03811115610106575f5ffd5b8201601f81018413610116575f5ffd5b80516001600160401b0381111561012f5761012f6100cd565b604051601f8201601f19908116603f011681016001600160401b038111828210171561015d5761015d6100cd565b604052818152828201602001861015610174575f5ffd5b8160208401602083015e5f91810160200191909152949350505050565b600181811c908216806101a557607f821691505b6020821081036101c357634e487b7160e01b5f52602260045260245ffd5b50919050565b601f82111561021057805f5260205f20601f840160051c810160208510156101ee5750805b601f840160051c820191505b8181101561020d575f81556001016101fa565b50505b505050565b81516001600160401b0381111561022e5761022e6100cd565b6102428161023c8454610191565b846101c9565b6020601f821160018114610274575f831561025d5750848201515b5f19600385901b1c1916600184901b17845561020d565b5f84815260208120601f198516915b828110156102a35787850151825560209485019460019092019101610283565b50848210156102c057868401515f19600387901b60f8161c191681555b50505050600190811b01905550565b611382806102dc5f395ff3fe608060405234801561000f575f5ffd5b506004361061011c575f3560e01c806384aa3b93116100a9578063d55d73c51161006e578063d55d73c5146102c5578063dd0e2373146102d8578063e5d4aa39146102eb578063efb98bcf146102fe578063f2fde38b14610306575f5ffd5b806384aa3b93146101d05780638ab66a90146101e35780638da5cb5b14610231578063a3ec138d14610255578063b5cefae7146102a4575f5ffd5b806338db6dd3116100ef57806338db6dd3146101875780633d2f5bda1461019a5780633eb76b9c146101ad578063581c281c146101c0578063715018a6146101c8575f5ffd5b806303ee438c14610120578063156b8a681461013e5780631ea736e01461015357806325709fa61461016a575b5f5ffd5b610128610319565b60405161013591906110b5565b60405180910390f35b61015161014c3660046110ea565b6103a5565b005b61015c60025481565b604051908152602001610135565b6003546101779060ff1681565b6040519015158152602001610135565b61015161019536600461115b565b610420565b6101516101a8366004611188565b6104b7565b6101516101bb366004611188565b610564565b610128610761565b6101516107db565b6101516101de36600461115b565b6107ee565b6102146101f136600461115b565b60056020525f908152604090208054600182015460029092015490919060ff1683565b604080519384526020840192909252151590820152606001610135565b5f546001600160a01b03165b6040516001600160a01b039091168152602001610135565b61028761026336600461115b565b60046020525f90815260409020805460019091015460ff8082169161010090041683565b604080519384529115156020840152151590820152606001610135565b6102b76102b236600461119f565b610a01565b6040516101359291906111f9565b61023d6102d3366004611188565b610c4e565b61023d6102e6366004611188565b610c76565b6102b76102f936600461119f565b610c85565b61015c610eb5565b61015161031436600461115b565b610ee8565b6001805461032690611226565b80601f016020809104026020016040519081016040528092919081815260200182805461035290611226565b801561039d5780601f106103745761010080835404028352916020019161039d565b820191905f5260205f20905b81548152906001019060200180831161038057829003601f168201915b505050505081565b6103ad610f25565b60035460ff16156103d95760405162461bcd60e51b81526004016103d09061125e565b60405180910390fd5b5f5b8181101561041b576104128383838181106103f8576103f8611295565b905060200201602081019061040d919061115b565b610f51565b506001016103db565b505050565b610428610f25565b60035460ff161561044b5760405162461bcd60e51b81526004016103d09061125e565b5f61045582610f51565b9050806104b35760405162461bcd60e51b815260206004820152602660248201527f496e76616c69642061646472657373206f7220616c726561647920726567697360448201526574657265642160d01b60648201526084016103d0565b5050565b6104bf610f25565b60035460ff16156104e25760405162461bcd60e51b81526004016103d09061125e565b4281116105255760405162461bcd60e51b8152602060048201526011602482015270496e76616c6964206475726174696f6e2160781b60448201526064016103d0565b6003805460ff19166001179055600281905560405133907ff8ed2b6117507e8f7ba16240930bbd8696ca6f7a957e092ff4d288ee7c27340d905f90a250565b60035460ff166105865760405162461bcd60e51b81526004016103d0906112a9565b60025442106105cb5760405162461bcd60e51b8152602060048201526011602482015270566f74696e672068617320656e6465642160781b60448201526064016103d0565b335f90815260046020526040902060010154610100900460ff166106315760405162461bcd60e51b815260206004820152601760248201527f596f7520617265206e6f7420726567697374657265642100000000000000000060448201526064016103d0565b335f9081526004602052604090206001015460ff16156106875760405162461bcd60e51b8152602060048201526011602482015270596f7520616c726561647920766f74652160781b60448201526064016103d0565b60075481106106c65760405162461bcd60e51b815260206004820152600b60248201526a496e76616c69642049442160a81b60448201526064016103d0565b5f600782815481106106da576106da611295565b5f9182526020808320909101546001600160a01b03168083526005909152604082206001018054919350909161070f836112f4565b9091555050335f818152600460205260408082208581556001908101805460ff19169091179055518492917f916befeecf21dcb694d21631d44ae7e5a6892165bc6f605cdc45769809e0251d91a35050565b60035460609060ff16610790575060408051808201909152600781526650656e64696e6760c81b602082015290565b60025442106107ba575060408051808201909152600681526510db1bdcd95960d21b602082015290565b5060408051808201909152600681526541637469766560d01b602082015290565b6107e3610f25565b6107ec5f611066565b565b6107f6610f25565b60035460ff16156108195760405162461bcd60e51b81526004016103d09061125e565b6001600160a01b0381165f9081526005602052604090206002015460ff16156108845760405162461bcd60e51b815260206004820152601d60248201527f43616e64696461746520616c726561647920726567697374657265642100000060448201526064016103d0565b6001600160a01b0381165f90815260046020526040902060010154610100900460ff16156108f45760405162461bcd60e51b815260206004820152601c60248201527f566f7465722063616e6e6f7420626520612063616e646964617465210000000060448201526064016103d0565b6001600160a01b03811661093d5760405162461bcd60e51b815260206004820152601060248201526f4164647265737320696e76616c69642160801b60448201526064016103d0565b60078054604080516060810182528281525f602080830182815260018486018181526001600160a01b038a1680865260059094528685209551865591518582015590516002909401805460ff191694151594909417909355855492830186559481527fa66cc928b5edb82af9bd49922954155ab7b0942694bea4ce44661d9a8736c68890910180546001600160a01b03191685179055905191929133917ff65baa9ab97449a3b221a18afd7d15aeb420fe1d14a8d5640deb3149cc435e8891a35050565b600354606090819060ff16610a285760405162461bcd60e51b81526004016103d0906112a9565b600254421015610a7a5760405162461bcd60e51b815260206004820152601860248201527f766f74696e67206973207374696c6c206f6e676f696e6721000000000000000060448201526064016103d0565b5f8311610ac95760405162461bcd60e51b815260206004820181905260248201527f4c696d6974206d7573742062652067726561746572207468616e207a65726f2160448201526064016103d0565b6007545f610ad7858761130c565b905081811115610ae45750805b5f610aef8783611325565b90505f8167ffffffffffffffff811115610b0b57610b0b611338565b604051908082528060200260200182016040528015610b34578160200160208202803683370190505b5090505f8267ffffffffffffffff811115610b5157610b51611338565b604051908082528060200260200182016040528015610b7a578160200160208202803683370190505b5090505f895b85811015610c3e575f60078281548110610b9c57610b9c611295565b5f9182526020808320909101546001600160a01b03168083526005909152604090912054865191925090869085908110610bd857610bd8611295565b60200260200101818152505060055f826001600160a01b03166001600160a01b031681526020019081526020015f2060010154848481518110610c1d57610c1d611295565b602090810291909101015282610c32816112f4565b93505050600101610b80565b5091999098509650505050505050565b60078181548110610c5d575f80fd5b5f918252602090912001546001600160a01b0316905081565b60068181548110610c5d575f80fd5b600354606090819060ff16610cac5760405162461bcd60e51b81526004016103d0906112a9565b6002544210610cf15760405162461bcd60e51b8152602060048201526011602482015270566f74696e672068617320656e6465642160781b60448201526064016103d0565b5f8311610d405760405162461bcd60e51b815260206004820181905260248201527f4c696d6974206d7573742062652067726561746572207468616e207a65726f2160448201526064016103d0565b6007545f610d4e858761130c565b905081811115610d5b5750805b5f610d668783611325565b90505f8167ffffffffffffffff811115610d8257610d82611338565b604051908082528060200260200182016040528015610dab578160200160208202803683370190505b5090505f8267ffffffffffffffff811115610dc857610dc8611338565b604051908082528060200260200182016040528015610df1578160200160208202803683370190505b5090505f895b85811015610c3e575f60078281548110610e1357610e13611295565b5f9182526020808320909101546001600160a01b03168083526005909152604090912054865191925090869085908110610e4f57610e4f611295565b60200260200101818152505060055f826001600160a01b03166001600160a01b031681526020019081526020015f2060010154848481518110610e9457610e94611295565b602090810291909101015282610ea9816112f4565b93505050600101610df7565b6003545f9060ff161580610ecb57506002544210155b15610ed557505f90565b42600254610ee39190611325565b905090565b610ef0610f25565b6001600160a01b038116610f1957604051631e4fbdf760e01b81525f60048201526024016103d0565b610f2281611066565b50565b5f546001600160a01b031633146107ec5760405163118cdaa760e01b81523360048201526024016103d0565b5f6001600160a01b0382161580610f8757506001600160a01b0382165f90815260046020526040902060010154610100900460ff165b15610f9357505f919050565b604080516060810182525f808252602080830182815260018486018181526001600160a01b03891680865260049094528685209551865591519481018054925115156101000261ff00199615159690961661ffff199093169290921794909417905560068054938401815582527ff652222313e28459528d920b65115c16c04f3efc82aaedc97be59f3f377c0d3f90920180546001600160a01b031916831790559151909133917f8623f54a7bb530db1ffc4a0daa438a5304d6914ac0c539ef65d78cf3c1270d1d9190a3506001919050565b5f80546001600160a01b038381166001600160a01b0319831681178455604051919092169283917f8be0079c531659141344cd1fd0a4f28419497f9722a3daafe3b4186f6b6457e09190a35050565b602081525f82518060208401528060208501604085015e5f604082850101526040601f19601f83011684010191505092915050565b5f5f602083850312156110fb575f5ffd5b823567ffffffffffffffff811115611111575f5ffd5b8301601f81018513611121575f5ffd5b803567ffffffffffffffff811115611137575f5ffd5b8560208260051b840101111561114b575f5ffd5b6020919091019590945092505050565b5f6020828403121561116b575f5ffd5b81356001600160a01b0381168114611181575f5ffd5b9392505050565b5f60208284031215611198575f5ffd5b5035919050565b5f5f604083850312156111b0575f5ffd5b50508035926020909101359150565b5f8151808452602084019350602083015f5b828110156111ef5781518652602095860195909101906001016111d1565b5093949350505050565b604081525f61120b60408301856111bf565b828103602084015261121d81856111bf565b95945050505050565b600181811c9082168061123a57607f821691505b60208210810361125857634e487b7160e01b5f52602260045260245ffd5b50919050565b6020808252601b908201527f566f74696e672068617320616c72656164792073746172746564210000000000604082015260600190565b634e487b7160e01b5f52603260045260245ffd5b6020808252601b908201527f566f74696e6720686173206e6f74207374617274656420796574210000000000604082015260600190565b634e487b7160e01b5f52601160045260245ffd5b5f60018201611305576113056112e0565b5060010190565b8082018082111561131f5761131f6112e0565b92915050565b8181038181111561131f5761131f6112e0565b634e487b7160e01b5f52604160045260245ffdfea2646970667358221220d26332761b029114ad5e10b7ae8d08ed3aa90a42a38505434e3985ff6f9fa50364736f6c634300081c0033a2646970667358221220e14113d0d928a18deb42d1637ea5b2e4834c371b92860aa2a0670ac0f9c9072e64736f6c634300081c0033",
  "linkReferences": {},
  "deployedLinkReferences": {},
  "immutableReferences": {},
  "inputSourceName": "project/contracts/VotingFactory.sol",
  "buildInfoId": "solc-0_8_28-6f30895cafd688344ae84a53fb297e4446b88bda"
}